{
  "contractName": "EnergyTrading",
  "abi": [
    {
      "anonymous": false,
      "inputs": [
        {
          "indexed": true,
          "internalType": "uint256",
          "name": "id",
          "type": "uint256"
        },
        {
          "indexed": true,
          "internalType": "address",
          "name": "owner",
          "type": "address"
        },
        {
          "indexed": false,
          "internalType": "string",
          "name": "name",
          "type": "string"
        },
        {
          "indexed": false,
          "internalType": "uint256",
          "name": "costPerUnit",
          "type": "uint256"
        },
        {
          "indexed": false,
          "internalType": "uint256",
          "name": "energyAmount",
          "type": "uint256"
        },
        {
          "indexed": false,
          "internalType": "string",
          "name": "fuelType",
          "type": "string"
        },
        {
          "indexed": false,
          "internalType": "string",
          "name": "description",
          "type": "string"
        },
        {
          "indexed": false,
          "internalType": "string",
          "name": "image",
          "type": "string"
        },
        {
          "indexed": false,
          "internalType": "uint256",
          "name": "createdAt",
          "type": "uint256"
        }
      ],
      "name": "EnergyListingCreated",
      "type": "event"
    },
    {
      "anonymous": false,
      "inputs": [
        {
          "indexed": true,
          "internalType": "uint256",
          "name": "id",
          "type": "uint256"
        },
        {
          "indexed": true,
          "internalType": "address",
          "name": "buyer",
          "type": "address"
        },
        {
          "indexed": false,
          "internalType": "uint256",
          "name": "amount",
          "type": "uint256"
        },
        {
          "indexed": false,
          "internalType": "uint256",
          "name": "totalCost",
          "type": "uint256"
        },
        {
          "indexed": false,
          "internalType": "uint256",
          "name": "timestamp",
          "type": "uint256"
        }
      ],
      "name": "EnergyPurchased",
      "type": "event"
    },
    {
      "inputs": [
        {
          "internalType": "uint256",
          "name": "",
          "type": "uint256"
        }
      ],
      "name": "energyListings",
      "outputs": [
        {
          "internalType": "address",
          "name": "owner",
          "type": "address"
        },
        {
          "internalType": "string",
          "name": "name",
          "type": "string"
        },
        {
          "internalType": "uint256",
          "name": "costPerUnit",
          "type": "uint256"
        },
        {
          "internalType": "uint256",
          "name": "energyAmount",
          "type": "uint256"
        },
        {
          "internalType": "string",
          "name": "fuelType",
          "type": "string"
        },
        {
          "internalType": "string",
          "name": "description",
          "type": "string"
        },
        {
          "internalType": "string",
          "name": "image",
          "type": "string"
        },
        {
          "internalType": "uint256",
          "name": "amountSold",
          "type": "uint256"
        },
        {
          "internalType": "uint256",
          "name": "createdAt",
          "type": "uint256"
        }
      ],
      "stateMutability": "view",
      "type": "function",
      "constant": true
    },
    {
      "inputs": [],
      "name": "numberOfListings",
      "outputs": [
        {
          "internalType": "uint256",
          "name": "",
          "type": "uint256"
        }
      ],
      "stateMutability": "view",
      "type": "function",
      "constant": true
    },
    {
      "inputs": [
        {
          "internalType": "uint256",
          "name": "",
          "type": "uint256"
        },
        {
          "internalType": "uint256",
          "name": "",
          "type": "uint256"
        }
      ],
      "name": "purchaseHistory",
      "outputs": [
        {
          "internalType": "address",
          "name": "buyer",
          "type": "address"
        },
        {
          "internalType": "uint256",
          "name": "amount",
          "type": "uint256"
        },
        {
          "internalType": "uint256",
          "name": "timestamp",
          "type": "uint256"
        }
      ],
      "stateMutability": "view",
      "type": "function",
      "constant": true
    },
    {
      "inputs": [
        {
          "internalType": "address",
          "name": "",
          "type": "address"
        },
        {
          "internalType": "uint256",
          "name": "",
          "type": "uint256"
        }
      ],
      "name": "userPurchases",
      "outputs": [
        {
          "internalType": "uint256",
          "name": "listingId",
          "type": "uint256"
        },
        {
          "internalType": "uint256",
          "name": "amount",
          "type": "uint256"
        },
        {
          "internalType": "uint256",
          "name": "timestamp",
          "type": "uint256"
        },
        {
          "internalType": "string",
          "name": "fuelType",
          "type": "string"
        },
        {
          "internalType": "uint256",
          "name": "totalCost",
          "type": "uint256"
        }
      ],
      "stateMutability": "view",
      "type": "function",
      "constant": true
    },
    {
      "inputs": [
        {
          "internalType": "address",
          "name": "_owner",
          "type": "address"
        },
        {
          "internalType": "string",
          "name": "_name",
          "type": "string"
        },
        {
          "internalType": "uint256",
          "name": "_costPerUnit",
          "type": "uint256"
        },
        {
          "internalType": "uint256",
          "name": "_energyAmount",
          "type": "uint256"
        },
        {
          "internalType": "string",
          "name": "_fuelType",
          "type": "string"
        },
        {
          "internalType": "string",
          "name": "_description",
          "type": "string"
        },
        {
          "internalType": "string",
          "name": "_image",
          "type": "string"
        }
      ],
      "name": "createEnergyListing",
      "outputs": [
        {
          "internalType": "uint256",
          "name": "",
          "type": "uint256"
        }
      ],
      "stateMutability": "nonpayable",
      "type": "function"
    },
    {
      "inputs": [
        {
          "internalType": "uint256",
          "name": "_id",
          "type": "uint256"
        },
        {
          "internalType": "uint256",
          "name": "_amount",
          "type": "uint256"
        }
      ],
      "name": "buyEnergy",
      "outputs": [],
      "stateMutability": "payable",
      "type": "function",
      "payable": true
    },
    {
      "inputs": [],
      "name": "getEnergyListings",
      "outputs": [
        {
          "components": [
            {
              "internalType": "address",
              "name": "owner",
              "type": "address"
            },
            {
              "internalType": "string",
              "name": "name",
              "type": "string"
            },
            {
              "internalType": "uint256",
              "name": "costPerUnit",
              "type": "uint256"
            },
            {
              "internalType": "uint256",
              "name": "energyAmount",
              "type": "uint256"
            },
            {
              "internalType": "string",
              "name": "fuelType",
              "type": "string"
            },
            {
              "internalType": "string",
              "name": "description",
              "type": "string"
            },
            {
              "internalType": "string",
              "name": "image",
              "type": "string"
            },
            {
              "internalType": "uint256",
              "name": "amountSold",
              "type": "uint256"
            },
            {
              "internalType": "uint256",
              "name": "createdAt",
              "type": "uint256"
            }
          ],
          "internalType": "struct EnergyTrading.EnergyListing[]",
          "name": "",
          "type": "tuple[]"
        }
      ],
      "stateMutability": "view",
      "type": "function",
      "constant": true
    },
    {
      "inputs": [
        {
          "internalType": "uint256",
          "name": "_id",
          "type": "uint256"
        }
      ],
      "name": "getEnergyListing",
      "outputs": [
        {
          "components": [
            {
              "internalType": "address",
              "name": "owner",
              "type": "address"
            },
            {
              "internalType": "string",
              "name": "name",
              "type": "string"
            },
            {
              "internalType": "uint256",
              "name": "costPerUnit",
              "type": "uint256"
            },
            {
              "internalType": "uint256",
              "name": "energyAmount",
              "type": "uint256"
            },
            {
              "internalType": "string",
              "name": "fuelType",
              "type": "string"
            },
            {
              "internalType": "string",
              "name": "description",
              "type": "string"
            },
            {
              "internalType": "string",
              "name": "image",
              "type": "string"
            },
            {
              "internalType": "uint256",
              "name": "amountSold",
              "type": "uint256"
            },
            {
              "internalType": "uint256",
              "name": "createdAt",
              "type": "uint256"
            }
          ],
          "internalType": "struct EnergyTrading.EnergyListing",
          "name": "",
          "type": "tuple"
        }
      ],
      "stateMutability": "view",
      "type": "function",
      "constant": true
    },
    {
      "inputs": [
        {
          "internalType": "address",
          "name": "_owner",
          "type": "address"
        }
      ],
      "name": "getEnergyListingsByOwner",
      "outputs": [
        {
          "components": [
            {
              "internalType": "address",
              "name": "owner",
              "type": "address"
            },
            {
              "internalType": "string",
              "name": "name",
              "type": "string"
            },
            {
              "internalType": "uint256",
              "name": "costPerUnit",
              "type": "uint256"
            },
            {
              "internalType": "uint256",
              "name": "energyAmount",
              "type": "uint256"
            },
            {
              "internalType": "string",
              "name": "fuelType",
              "type": "string"
            },
            {
              "internalType": "string",
              "name": "description",
              "type": "string"
            },
            {
              "internalType": "string",
              "name": "image",
              "type": "string"
            },
            {
              "internalType": "uint256",
              "name": "amountSold",
              "type": "uint256"
            },
            {
              "internalType": "uint256",
              "name": "createdAt",
              "type": "uint256"
            }
          ],
          "internalType": "struct EnergyTrading.EnergyListing[]",
          "name": "",
          "type": "tuple[]"
        }
      ],
      "stateMutability": "view",
      "type": "function",
      "constant": true
    },
    {
      "inputs": [
        {
          "internalType": "uint256",
          "name": "_id",
          "type": "uint256"
        }
      ],
      "name": "getPurchaseHistory",
      "outputs": [
        {
          "components": [
            {
              "internalType": "address",
              "name": "buyer",
              "type": "address"
            },
            {
              "internalType": "uint256",
              "name": "amount",
              "type": "uint256"
            },
            {
              "internalType": "uint256",
              "name": "timestamp",
              "type": "uint256"
            }
          ],
          "internalType": "struct EnergyTrading.Purchase[]",
          "name": "",
          "type": "tuple[]"
        }
      ],
      "stateMutability": "view",
      "type": "function",
      "constant": true
    },
    {
      "inputs": [
        {
          "internalType": "address",
          "name": "_user",
          "type": "address"
        }
      ],
      "name": "getUserPurchases",
      "outputs": [
        {
          "components": [
            {
              "internalType": "uint256",
              "name": "listingId",
              "type": "uint256"
            },
            {
              "internalType": "uint256",
              "name": "amount",
              "type": "uint256"
            },
            {
              "internalType": "uint256",
              "name": "timestamp",
              "type": "uint256"
            },
            {
              "internalType": "string",
              "name": "fuelType",
              "type": "string"
            },
            {
              "internalType": "uint256",
              "name": "totalCost",
              "type": "uint256"
            }
          ],
          "internalType": "struct EnergyTrading.PurchaseDetail[]",
          "name": "",
          "type": "tuple[]"
        }
      ],
      "stateMutability": "view",
      "type": "function",
      "constant": true
    }
  ],
  "bytecode": "0x6080604052600060035534801561001557600080fd5b506132cc806100256000396000f3fe60806040526004361061009c5760003560e01c8063c6e5d8f611610064578063c6e5d8f6146101ca578063cdb6d52d14610207578063cf2c033414610223578063e0ba5b4414610264578063e43e422e1461028f578063f4bf28a0146102cc5761009c565b80630f8ff4a1146100a157806365e111f8146100de5780638127df721461012357806390d098291461016057806395f58ab81461018b575b600080fd5b3480156100ad57600080fd5b506100c860048036038101906100c39190611e32565b610309565b6040516100d591906120bc565b60405180910390f35b3480156100ea57600080fd5b506101056004803603810190610100919061210a565b6107a4565b60405161011a9998979695949392919061219f565b60405180910390f35b34801561012f57600080fd5b5061014a6004803603810190610145919061237d565b610a32565b604051610157919061248f565b60405180910390f35b34801561016c57600080fd5b50610175610cfb565b60405161018291906120bc565b60405180910390f35b34801561019757600080fd5b506101b260048036038101906101ad91906124aa565b611087565b6040516101c1939291906124ea565b60405180910390f35b3480156101d657600080fd5b506101f160048036038101906101ec9190611e32565b6110ee565b6040516101fe9190612659565b60405180910390f35b610221600480360381019061021c91906124aa565b611246565b005b34801561022f57600080fd5b5061024a6004803603810190610245919061267b565b611783565b60405161025b9594939291906126bb565b60405180910390f35b34801561027057600080fd5b5061027961185e565b604051610286919061248f565b60405180910390f35b34801561029b57600080fd5b506102b660048036038101906102b1919061210a565b611864565b6040516102c391906127ef565b60405180910390f35b3480156102d857600080fd5b506102f360048036038101906102ee919061210a565b611b9b565b6040516103009190612902565b60405180910390f35b60606000805b6003548110156103a4578373ffffffffffffffffffffffffffffffffffffffff1660008083815260200190815260200160002060000160009054906101000a900473ffffffffffffffffffffffffffffffffffffffff1673ffffffffffffffffffffffffffffffffffffffff16141561039157818061038d90612953565b9250505b808061039c90612953565b91505061030f565b5060008167ffffffffffffffff8111156103c1576103c0612252565b5b6040519080825280602002602001820160405280156103fa57816020015b6103e7611cbb565b8152602001906001900390816103df5790505b5090506000805b600354811015610798578573ffffffffffffffffffffffffffffffffffffffff1660008083815260200190815260200160002060000160009054906101000a900473ffffffffffffffffffffffffffffffffffffffff1673ffffffffffffffffffffffffffffffffffffffff16141561078557600080828152602001908152602001600020604051806101200160405290816000820160009054906101000a900473ffffffffffffffffffffffffffffffffffffffff1673ffffffffffffffffffffffffffffffffffffffff1673ffffffffffffffffffffffffffffffffffffffff1681526020016001820180546104f8906129cb565b80601f0160208091040260200160405190810160405280929190818152602001828054610524906129cb565b80156105715780601f1061054657610100808354040283529160200191610571565b820191906000526020600020905b81548152906001019060200180831161055457829003601f168201915b50505050508152602001600282015481526020016003820154815260200160048201805461059e906129cb565b80601f01602080910402602001604051908101604052809291908181526020018280546105ca906129cb565b80156106175780601f106105ec57610100808354040283529160200191610617565b820191906000526020600020905b8154815290600101906020018083116105fa57829003601f168201915b50505050508152602001600582018054610630906129cb565b80601f016020809104026020016040519081016040528092919081815260200182805461065c906129cb565b80156106a95780601f1061067e576101008083540402835291602001916106a9565b820191906000526020600020905b81548152906001019060200180831161068c57829003601f168201915b505050505081526020016006820180546106c2906129cb565b80601f01602080910402602001604051908101604052809291908181526020018280546106ee906129cb565b801561073b5780601f106107105761010080835404028352916020019161073b565b820191906000526020600020905b81548152906001019060200180831161071e57829003601f168201915b505050505081526020016007820154815260200160088201548152505083838151811061076b5761076a6129fd565b5b6020026020010181905250818061078190612953565b9250505b808061079090612953565b915050610401565b50819350505050919050565b60006020528060005260406000206000915090508060000160009054906101000a900473ffffffffffffffffffffffffffffffffffffffff16908060010180546107ed906129cb565b80601f0160208091040260200160405190810160405280929190818152602001828054610819906129cb565b80156108665780601f1061083b57610100808354040283529160200191610866565b820191906000526020600020905b81548152906001019060200180831161084957829003601f168201915b505050505090806002015490806003015490806004018054610887906129cb565b80601f01602080910402602001604051908101604052809291908181526020018280546108b3906129cb565b80156109005780601f106108d557610100808354040283529160200191610900565b820191906000526020600020905b8154815290600101906020018083116108e357829003601f168201915b505050505090806005018054610915906129cb565b80601f0160208091040260200160405190810160405280929190818152602001828054610941906129cb565b801561098e5780601f106109635761010080835404028352916020019161098e565b820191906000526020600020905b81548152906001019060200180831161097157829003601f168201915b5050505050908060060180546109a3906129cb565b80601f01602080910402602001604051908101604052809291908181526020018280546109cf906129cb565b8015610a1c5780601f106109f157610100808354040283529160200191610a1c565b820191906000526020600020905b8154815290600101906020018083116109ff57829003601f168201915b5050505050908060070154908060080154905089565b6000808611610a76576040517f08c379a0000000000000000000000000000000000000000000000000000000008152600401610a6d90612a9e565b60405180910390fd5b60008511610ab9576040517f08c379a0000000000000000000000000000000000000000000000000000000008152600401610ab090612b30565b60405180910390fd5b6000875111610afd576040517f08c379a0000000000000000000000000000000000000000000000000000000008152600401610af490612b9c565b60405180910390fd5b6000845111610b41576040517f08c379a0000000000000000000000000000000000000000000000000000000008152600401610b3890612c08565b60405180910390fd5b6000825111610b85576040517f08c379a0000000000000000000000000000000000000000000000000000000008152600401610b7c90612c74565b60405180910390fd5b600080600060035481526020019081526020016000209050888160000160006101000a81548173ffffffffffffffffffffffffffffffffffffffff021916908373ffffffffffffffffffffffffffffffffffffffff16021790555087816001019080519060200190610bf8929190611d1d565b5086816002018190555085816003018190555084816004019080519060200190610c23929190611d1d565b5083816005019080519060200190610c3c929190611d1d565b5082816006019080519060200190610c55929190611d1d565b50600081600701819055504281600801819055508873ffffffffffffffffffffffffffffffffffffffff166003547f6ead10b89732c5d2b6de85d6c9b92e3235b6eada3130c2bef46e3173063772ec8a8a8a8a8a8a42604051610cbe9796959493929190612c94565b60405180910390a360036000815480929190610cd990612953565b91905055506001600354610ced9190612d1f565b915050979650505050505050565b6060600060035467ffffffffffffffff811115610d1b57610d1a612252565b5b604051908082528060200260200182016040528015610d5457816020015b610d41611cbb565b815260200190600190039081610d395790505b50905060005b60035481101561107f576000806000838152602001908152602001600020905080604051806101200160405290816000820160009054906101000a900473ffffffffffffffffffffffffffffffffffffffff1673ffffffffffffffffffffffffffffffffffffffff1673ffffffffffffffffffffffffffffffffffffffff168152602001600182018054610ded906129cb565b80601f0160208091040260200160405190810160405280929190818152602001828054610e19906129cb565b8015610e665780601f10610e3b57610100808354040283529160200191610e66565b820191906000526020600020905b815481529060010190602001808311610e4957829003601f168201915b505050505081526020016002820154815260200160038201548152602001600482018054610e93906129cb565b80601f0160208091040260200160405190810160405280929190818152602001828054610ebf906129cb565b8015610f0c5780601f10610ee157610100808354040283529160200191610f0c565b820191906000526020600020905b815481529060010190602001808311610eef57829003601f168201915b50505050508152602001600582018054610f25906129cb565b80601f0160208091040260200160405190810160405280929190818152602001828054610f51906129cb565b8015610f9e5780601f10610f7357610100808354040283529160200191610f9e565b820191906000526020600020905b815481529060010190602001808311610f8157829003601f168201915b50505050508152602001600682018054610fb7906129cb565b80601f0160208091040260200160405190810160405280929190818152602001828054610fe3906129cb565b80156110305780601f1061100557610100808354040283529160200191611030565b820191906000526020600020905b81548152906001019060200180831161101357829003601f168201915b50505050508152602001600782015481526020016008820154815250508383815181106110605761105f6129fd565b5b602002602001018190525050808061107790612953565b915050610d5a565b508091505090565b600160205281600052604060002081815481106110a357600080fd5b9060005260206000209060030201600091509150508060000160009054906101000a900473ffffffffffffffffffffffffffffffffffffffff16908060010154908060020154905083565b6060600260008373ffffffffffffffffffffffffffffffffffffffff1673ffffffffffffffffffffffffffffffffffffffff168152602001908152602001600020805480602002602001604051908101604052809291908181526020016000905b8282101561123b57838290600052602060002090600502016040518060a00160405290816000820154815260200160018201548152602001600282015481526020016003820180546111a0906129cb565b80601f01602080910402602001604051908101604052809291908181526020018280546111cc906129cb565b80156112195780601f106111ee57610100808354040283529160200191611219565b820191906000526020600020905b8154815290600101906020018083116111fc57829003601f168201915b505050505081526020016004820154815250508152602001906001019061114f565b505050509050919050565b6000806000848152602001908152602001600020905060008160030154116112a3576040517f08c379a000000000000000000000000000000000000000000000000000000000815260040161129a90612d9f565b60405180910390fd5b600082116112e6576040517f08c379a00000000000000000000000000000000000000000000000000000000081526004016112dd90612e31565b60405180910390fd5b81816007015482600301546112fb9190612d1f565b101561133c576040517f08c379a000000000000000000000000000000000000000000000000000000000815260040161133390612e9d565b60405180910390fd5b6000670de0b6b3a76400008383600201546113579190612ebd565b6113619190612f46565b90508034146113a5576040517f08c379a000000000000000000000000000000000000000000000000000000000815260040161139c90612fc3565b60405180910390fd5b80341434826040516020016113bb9291906130cd565b6040516020818303038152906040529061140b576040517f08c379a0000000000000000000000000000000000000000000000000000000008152600401611402919061310f565b60405180910390fd5b50828260070160008282546114209190613131565b92505081905550600060405180606001604052803373ffffffffffffffffffffffffffffffffffffffff1681526020018581526020014281525090506001600086815260200190815260200160002081908060018154018082558091505060019003906000526020600020906003020160009091909190915060008201518160000160006101000a81548173ffffffffffffffffffffffffffffffffffffffff021916908373ffffffffffffffffffffffffffffffffffffffff16021790555060208201518160010155604082015181600201555050600260003373ffffffffffffffffffffffffffffffffffffffff1673ffffffffffffffffffffffffffffffffffffffff1681526020019081526020016000206040518060a00160405280878152602001868152602001428152602001856004018054611561906129cb565b80601f016020809104026020016040519081016040528092919081815260200182805461158d906129cb565b80156115da5780601f106115af576101008083540402835291602001916115da565b820191906000526020600020905b8154815290600101906020018083116115bd57829003601f168201915b50505050508152602001848152509080600181540180825580915050600190039060005260206000209060050201600090919091909150600082015181600001556020820151816001015560408201518160020155606082015181600301908051906020019061164b929190611d1d565b5060808201518160040155505060008360000160009054906101000a900473ffffffffffffffffffffffffffffffffffffffff1673ffffffffffffffffffffffffffffffffffffffff16836040516116a2906131b8565b60006040518083038185875af1925050503d80600081146116df576040519150601f19603f3d011682016040523d82523d6000602084013e6116e4565b606091505b5050905080611728576040517f08c379a000000000000000000000000000000000000000000000000000000000815260040161171f9061323f565b60405180910390fd5b3373ffffffffffffffffffffffffffffffffffffffff16867fe63d1c123fef0f11fc03d70f50d1e85dc59dcfb2c46223c8c314cc39a11a9a008786426040516117739392919061325f565b60405180910390a3505050505050565b6002602052816000526040600020818154811061179f57600080fd5b9060005260206000209060050201600091509150508060000154908060010154908060020154908060030180546117d5906129cb565b80601f0160208091040260200160405190810160405280929190818152602001828054611801906129cb565b801561184e5780601f106118235761010080835404028352916020019161184e565b820191906000526020600020905b81548152906001019060200180831161183157829003601f168201915b5050505050908060040154905085565b60035481565b61186c611cbb565b60035482106118b0576040517f08c379a00000000000000000000000000000000000000000000000000000000081526004016118a790612d9f565b60405180910390fd5b600080838152602001908152602001600020604051806101200160405290816000820160009054906101000a900473ffffffffffffffffffffffffffffffffffffffff1673ffffffffffffffffffffffffffffffffffffffff1673ffffffffffffffffffffffffffffffffffffffff168152602001600182018054611934906129cb565b80601f0160208091040260200160405190810160405280929190818152602001828054611960906129cb565b80156119ad5780601f10611982576101008083540402835291602001916119ad565b820191906000526020600020905b81548152906001019060200180831161199057829003601f168201915b5050505050815260200160028201548152602001600382015481526020016004820180546119da906129cb565b80601f0160208091040260200160405190810160405280929190818152602001828054611a06906129cb565b8015611a535780601f10611a2857610100808354040283529160200191611a53565b820191906000526020600020905b815481529060010190602001808311611a3657829003601f168201915b50505050508152602001600582018054611a6c906129cb565b80601f0160208091040260200160405190810160405280929190818152602001828054611a98906129cb565b8015611ae55780601f10611aba57610100808354040283529160200191611ae5565b820191906000526020600020905b815481529060010190602001808311611ac857829003601f168201915b50505050508152602001600682018054611afe906129cb565b80601f0160208091040260200160405190810160405280929190818152602001828054611b2a906129cb565b8015611b775780601f10611b4c57610100808354040283529160200191611b77565b820191906000526020600020905b815481529060010190602001808311611b5a57829003601f168201915b50505050508152602001600782015481526020016008820154815250509050919050565b60606003548210611be1576040517f08c379a0000000000000000000000000000000000000000000000000000000008152600401611bd890612d9f565b60405180910390fd5b60016000838152602001908152602001600020805480602002602001604051908101604052809291908181526020016000905b82821015611cb057838290600052602060002090600302016040518060600160405290816000820160009054906101000a900473ffffffffffffffffffffffffffffffffffffffff1673ffffffffffffffffffffffffffffffffffffffff1673ffffffffffffffffffffffffffffffffffffffff1681526020016001820154815260200160028201548152505081526020019060010190611c14565b505050509050919050565b604051806101200160405280600073ffffffffffffffffffffffffffffffffffffffff16815260200160608152602001600081526020016000815260200160608152602001606081526020016060815260200160008152602001600081525090565b828054611d29906129cb565b90600052602060002090601f016020900481019282611d4b5760008555611d92565b82601f10611d6457805160ff1916838001178555611d92565b82800160010185558215611d92579182015b82811115611d91578251825591602001919060010190611d76565b5b509050611d9f9190611da3565b5090565b5b80821115611dbc576000816000905550600101611da4565b5090565b6000604051905090565b600080fd5b600080fd5b600073ffffffffffffffffffffffffffffffffffffffff82169050919050565b6000611dff82611dd4565b9050919050565b611e0f81611df4565b8114611e1a57600080fd5b50565b600081359050611e2c81611e06565b92915050565b600060208284031215611e4857611e47611dca565b5b6000611e5684828501611e1d565b91505092915050565b600081519050919050565b600082825260208201905092915050565b6000819050602082019050919050565b611e9481611df4565b82525050565b600081519050919050565b600082825260208201905092915050565b60005b83811015611ed4578082015181840152602081019050611eb9565b83811115611ee3576000848401525b50505050565b6000601f19601f8301169050919050565b6000611f0582611e9a565b611f0f8185611ea5565b9350611f1f818560208601611eb6565b611f2881611ee9565b840191505092915050565b6000819050919050565b611f4681611f33565b82525050565b600061012083016000830151611f656000860182611e8b565b5060208301518482036020860152611f7d8282611efa565b9150506040830151611f926040860182611f3d565b506060830151611fa56060860182611f3d565b5060808301518482036080860152611fbd8282611efa565b91505060a083015184820360a0860152611fd78282611efa565b91505060c083015184820360c0860152611ff18282611efa565b91505060e083015161200660e0860182611f3d565b5061010083015161201b610100860182611f3d565b508091505092915050565b60006120328383611f4c565b905092915050565b6000602082019050919050565b600061205282611e5f565b61205c8185611e6a565b93508360208202850161206e85611e7b565b8060005b858110156120aa578484038952815161208b8582612026565b94506120968361203a565b925060208a01995050600181019050612072565b50829750879550505050505092915050565b600060208201905081810360008301526120d68184612047565b905092915050565b6120e781611f33565b81146120f257600080fd5b50565b600081359050612104816120de565b92915050565b6000602082840312156121205761211f611dca565b5b600061212e848285016120f5565b91505092915050565b61214081611df4565b82525050565b600082825260208201905092915050565b600061216282611e9a565b61216c8185612146565b935061217c818560208601611eb6565b61218581611ee9565b840191505092915050565b61219981611f33565b82525050565b6000610120820190506121b5600083018c612137565b81810360208301526121c7818b612157565b90506121d6604083018a612190565b6121e36060830189612190565b81810360808301526121f58188612157565b905081810360a08301526122098187612157565b905081810360c083015261221d8186612157565b905061222c60e0830185612190565b61223a610100830184612190565b9a9950505050505050505050565b600080fd5b600080fd5b7f4e487b7100000000000000000000000000000000000000000000000000000000600052604160045260246000fd5b61228a82611ee9565b810181811067ffffffffffffffff821117156122a9576122a8612252565b5b80604052505050565b60006122bc611dc0565b90506122c88282612281565b919050565b600067ffffffffffffffff8211156122e8576122e7612252565b5b6122f182611ee9565b9050602081019050919050565b82818337600083830152505050565b600061232061231b846122cd565b6122b2565b90508281526020810184848401111561233c5761233b61224d565b5b6123478482856122fe565b509392505050565b600082601f83011261236457612363612248565b5b813561237484826020860161230d565b91505092915050565b600080600080600080600060e0888a03121561239c5761239b611dca565b5b60006123aa8a828b01611e1d565b975050602088013567ffffffffffffffff8111156123cb576123ca611dcf565b5b6123d78a828b0161234f565b96505060406123e88a828b016120f5565b95505060606123f98a828b016120f5565b945050608088013567ffffffffffffffff81111561241a57612419611dcf565b5b6124268a828b0161234f565b93505060a088013567ffffffffffffffff81111561244757612446611dcf565b5b6124538a828b0161234f565b92505060c088013567ffffffffffffffff81111561247457612473611dcf565b5b6124808a828b0161234f565b91505092959891949750929550565b60006020820190506124a46000830184612190565b92915050565b600080604083850312156124c1576124c0611dca565b5b60006124cf858286016120f5565b92505060206124e0858286016120f5565b9150509250929050565b60006060820190506124ff6000830186612137565b61250c6020830185612190565b6125196040830184612190565b949350505050565b600081519050919050565b600082825260208201905092915050565b6000819050602082019050919050565b600060a0830160008301516125656000860182611f3d565b5060208301516125786020860182611f3d565b50604083015161258b6040860182611f3d565b50606083015184820360608601526125a38282611efa565b91505060808301516125b86080860182611f3d565b508091505092915050565b60006125cf838361254d565b905092915050565b6000602082019050919050565b60006125ef82612521565b6125f9818561252c565b93508360208202850161260b8561253d565b8060005b85811015612647578484038952815161262885826125c3565b9450612633836125d7565b925060208a0199505060018101905061260f565b50829750879550505050505092915050565b6000602082019050818103600083015261267381846125e4565b905092915050565b6000806040838503121561269257612691611dca565b5b60006126a085828601611e1d565b92505060206126b1858286016120f5565b9150509250929050565b600060a0820190506126d06000830188612190565b6126dd6020830187612190565b6126ea6040830186612190565b81810360608301526126fc8185612157565b905061270b6080830184612190565b9695505050505050565b60006101208301600083015161272e6000860182611e8b565b50602083015184820360208601526127468282611efa565b915050604083015161275b6040860182611f3d565b50606083015161276e6060860182611f3d565b50608083015184820360808601526127868282611efa565b91505060a083015184820360a08601526127a08282611efa565b91505060c083015184820360c08601526127ba8282611efa565b91505060e08301516127cf60e0860182611f3d565b506101008301516127e4610100860182611f3d565b508091505092915050565b600060208201905081810360008301526128098184612715565b905092915050565b600081519050919050565b600082825260208201905092915050565b6000819050602082019050919050565b6060820160008201516128536000850182611e8b565b5060208201516128666020850182611f3d565b5060408201516128796040850182611f3d565b50505050565b600061288b838361283d565b60608301905092915050565b6000602082019050919050565b60006128af82612811565b6128b9818561281c565b93506128c48361282d565b8060005b838110156128f55781516128dc888261287f565b97506128e783612897565b9250506001810190506128c8565b5085935050505092915050565b6000602082019050818103600083015261291c81846128a4565b905092915050565b7f4e487b7100000000000000000000000000000000000000000000000000000000600052601160045260246000fd5b600061295e82611f33565b91507fffffffffffffffffffffffffffffffffffffffffffffffffffffffffffffffff82141561299157612990612924565b5b600182019050919050565b7f4e487b7100000000000000000000000000000000000000000000000000000000600052602260045260246000fd5b600060028204905060018216806129e357607f821691505b602082108114156129f7576129f661299c565b5b50919050565b7f4e487b7100000000000000000000000000000000000000000000000000000000600052603260045260246000fd5b7f436f73742070657220756e6974206d757374206265206772656174657220746860008201527f616e207a65726f2e000000000000000000000000000000000000000000000000602082015250565b6000612a88602883612146565b9150612a9382612a2c565b604082019050919050565b60006020820190508181036000830152612ab781612a7b565b9050919050565b7f456e6572677920616d6f756e74206d757374206265206772656174657220746860008201527f616e207a65726f2e000000000000000000000000000000000000000000000000602082015250565b6000612b1a602883612146565b9150612b2582612abe565b604082019050919050565b60006020820190508181036000830152612b4981612b0d565b9050919050565b7f436f6d70616e79206e616d652069732072657175697265642e00000000000000600082015250565b6000612b86601983612146565b9150612b9182612b50565b602082019050919050565b60006020820190508181036000830152612bb581612b79565b9050919050565b7f4675656c20747970652069732072657175697265642e00000000000000000000600082015250565b6000612bf2601683612146565b9150612bfd82612bbc565b602082019050919050565b60006020820190508181036000830152612c2181612be5565b9050919050565b7f496d6167652055524c2069732072657175697265642e00000000000000000000600082015250565b6000612c5e601683612146565b9150612c6982612c28565b602082019050919050565b60006020820190508181036000830152612c8d81612c51565b9050919050565b600060e0820190508181036000830152612cae818a612157565b9050612cbd6020830189612190565b612cca6040830188612190565b8181036060830152612cdc8187612157565b90508181036080830152612cf08186612157565b905081810360a0830152612d048185612157565b9050612d1360c0830184612190565b98975050505050505050565b6000612d2a82611f33565b9150612d3583611f33565b925082821015612d4857612d47612924565b5b828203905092915050565b7f456e65726779206c697374696e6720646f6573206e6f742065786973742e0000600082015250565b6000612d89601e83612146565b9150612d9482612d53565b602082019050919050565b60006020820190508181036000830152612db881612d7c565b9050919050565b7f507572636861736520616d6f756e74206d75737420626520677265617465722060008201527f7468616e207a65726f2e00000000000000000000000000000000000000000000602082015250565b6000612e1b602a83612146565b9150612e2682612dbf565b604082019050919050565b60006020820190508181036000830152612e4a81612e0e565b9050919050565b7f4e6f7420656e6f75676820656e6572677920617661696c61626c652e00000000600082015250565b6000612e87601c83612146565b9150612e9282612e51565b602082019050919050565b60006020820190508181036000830152612eb681612e7a565b9050919050565b6000612ec882611f33565b9150612ed383611f33565b9250817fffffffffffffffffffffffffffffffffffffffffffffffffffffffffffffffff0483118215151615612f0c57612f0b612924565b5b828202905092915050565b7f4e487b7100000000000000000000000000000000000000000000000000000000600052601260045260246000fd5b6000612f5182611f33565b9150612f5c83611f33565b925082612f6c57612f6b612f17565b5b828204905092915050565b7f496e636f72726563742045746865722076616c75652073656e742e0000000000600082015250565b6000612fad601b83612146565b9150612fb882612f77565b602082019050919050565b60006020820190508181036000830152612fdc81612fa0565b9050919050565b600081905092915050565b7f496e636f72726563742045746865722076616c75652073656e742e20596f752060008201527f73656e743a200000000000000000000000000000000000000000000000000000602082015250565b600061304a602683612fe3565b915061305582612fee565b602682019050919050565b6000819050919050565b61307b61307682611f33565b613060565b82525050565b7f2045787065637465643a20000000000000000000000000000000000000000000600082015250565b60006130b7600b83612fe3565b91506130c282613081565b600b82019050919050565b60006130d88261303d565b91506130e4828561306a565b6020820191506130f3826130aa565b91506130ff828461306a565b6020820191508190509392505050565b600060208201905081810360008301526131298184612157565b905092915050565b600061313c82611f33565b915061314783611f33565b9250827fffffffffffffffffffffffffffffffffffffffffffffffffffffffffffffffff0382111561317c5761317b612924565b5b828201905092915050565b600081905092915050565b50565b60006131a2600083613187565b91506131ad82613192565b600082019050919050565b60006131c382613195565b9150819050919050565b7f4661696c656420746f2073656e6420457468657220746f20746865206f776e6560008201527f722e000000000000000000000000000000000000000000000000000000000000602082015250565b6000613229602283612146565b9150613234826131cd565b604082019050919050565b600060208201905081810360008301526132588161321c565b9050919050565b60006060820190506132746000830186612190565b6132816020830185612190565b61328e6040830184612190565b94935050505056fea264697066735822122045a439ea3f1a8e93336cdca513844be7ef8904a728f440b71aab1dce1b763b2a64736f6c63430008090033",
  "immutableReferences": {},
  "source": "// SPDX-License-Identifier: MIT\r\npragma solidity ^0.8.9;\r\n\r\ncontract EnergyTrading {\r\n    struct EnergyListing {\r\n        address owner;\r\n        string name; // Company Name\r\n        uint256 costPerUnit; // Cost per Energy Unit in Wei\r\n        uint256 energyAmount; // Total Energy Available (kWh)\r\n        string fuelType; // Type of Fuel\r\n        string description; // Description of the Energy Offering\r\n        string image; // URL to Company Logo/Image\r\n        uint256 amountSold; // Total Energy Sold (kWh)\r\n        uint256 createdAt; // Timestamp of Listing Creation\r\n    }\r\n\r\n    struct Purchase {\r\n        address buyer;\r\n        uint256 amount;\r\n        uint256 timestamp;\r\n    }\r\n\r\n    // Struct to track purchases by user\r\n    struct PurchaseDetail {\r\n        uint256 listingId;\r\n        uint256 amount;\r\n        uint256 timestamp;\r\n        string fuelType; // Type of energy used\r\n        uint256 totalCost; // Total cost of the purchase\r\n    }\r\n\r\n    mapping(uint256 => EnergyListing) public energyListings;\r\n    mapping(uint256 => Purchase[]) public purchaseHistory; // Mapping to store purchase history per listing\r\n    mapping(address => PurchaseDetail[]) public userPurchases; // Mapping to store purchases by each user\r\n    uint256 public numberOfListings = 0;\r\n\r\n    // Events\r\n    event EnergyListingCreated(\r\n        uint256 indexed id,\r\n        address indexed owner,\r\n        string name,\r\n        uint256 costPerUnit,\r\n        uint256 energyAmount,\r\n        string fuelType,\r\n        string description,\r\n        string image,\r\n        uint256 createdAt\r\n    );\r\n\r\n    event EnergyPurchased(\r\n        uint256 indexed id,\r\n        address indexed buyer,\r\n        uint256 amount,\r\n        uint256 totalCost,\r\n        uint256 timestamp\r\n    );\r\n\r\n    /**\r\n     * @dev Creates a new energy listing.\r\n     */\r\n    function createEnergyListing(\r\n        address _owner,\r\n        string memory _name,\r\n        uint256 _costPerUnit,\r\n        uint256 _energyAmount,\r\n        string memory _fuelType,\r\n        string memory _description,\r\n        string memory _image\r\n    ) public returns (uint256) {\r\n        require(_costPerUnit > 0, \"Cost per unit must be greater than zero.\");\r\n        require(_energyAmount > 0, \"Energy amount must be greater than zero.\");\r\n        require(bytes(_name).length > 0, \"Company name is required.\");\r\n        require(bytes(_fuelType).length > 0, \"Fuel type is required.\");\r\n        require(bytes(_image).length > 0, \"Image URL is required.\");\r\n\r\n        EnergyListing storage listing = energyListings[numberOfListings];\r\n        listing.owner = _owner;\r\n        listing.name = _name;\r\n        listing.costPerUnit = _costPerUnit;\r\n        listing.energyAmount = _energyAmount;\r\n        listing.fuelType = _fuelType;\r\n        listing.description = _description;\r\n        listing.image = _image;\r\n        listing.amountSold = 0;\r\n        listing.createdAt = block.timestamp;\r\n\r\n        emit EnergyListingCreated(\r\n            numberOfListings,\r\n            _owner,\r\n            _name,\r\n            _costPerUnit,\r\n            _energyAmount,\r\n            _fuelType,\r\n            _description,\r\n            _image,\r\n            block.timestamp\r\n        );\r\n\r\n        numberOfListings++;\r\n        return numberOfListings - 1;\r\n    }\r\n\r\n    /**\r\n     * @dev Allows users to purchase energy units from a listing.\r\n     */\r\n    function buyEnergy(uint256 _id, uint256 _amount) public payable {\r\n        EnergyListing storage listing = energyListings[_id];\r\n\r\n        // Check if the listing exists\r\n        require(listing.energyAmount > 0, \"Energy listing does not exist.\");\r\n\r\n        // Check if the purchase amount is valid\r\n        require(_amount > 0, \"Purchase amount must be greater than zero.\");\r\n\r\n        // Ensure there is enough energy available in the listing\r\n        require(\r\n            listing.energyAmount - listing.amountSold >= _amount,\r\n            \"Not enough energy available.\"\r\n        );\r\n\r\n        uint256 totalCost = (listing.costPerUnit * _amount) / 10 ** 18; // Total cost in Wei\r\n\r\n        // Ensure the buyer has sent the exact Ether required\r\n        require(msg.value == totalCost, \"Incorrect Ether value sent.\");\r\n\r\n        //above message but returns with the msg.value and totalCost)\r\n        require(\r\n            msg.value == totalCost,\r\n            string(\r\n                abi.encodePacked(\r\n                    \"Incorrect Ether value sent. You sent: \",\r\n                    msg.value,\r\n                    \" Expected: \",\r\n                    totalCost\r\n                )\r\n            )\r\n        );\r\n\r\n        // Update the listing to reflect the sold amount\r\n        listing.amountSold += _amount;\r\n\r\n        // Record the purchase with timestamp\r\n        Purchase memory newPurchase = Purchase({\r\n            buyer: msg.sender,\r\n            amount: _amount,\r\n            timestamp: block.timestamp\r\n        });\r\n        purchaseHistory[_id].push(newPurchase);\r\n\r\n        // Track the user's purchase\r\n        // Track the user's purchase with additional details\r\n        userPurchases[msg.sender].push(\r\n            PurchaseDetail({\r\n                listingId: _id,\r\n                amount: _amount,\r\n                timestamp: block.timestamp,\r\n                fuelType: listing.fuelType, // Include the type of energy\r\n                totalCost: totalCost // Include the calculated total cost\r\n            })\r\n        );\r\n\r\n        // Interactions: Transfer Ether to the listing owner\r\n        (bool sent, ) = payable(listing.owner).call{value: totalCost}(\"\");\r\n        require(sent, \"Failed to send Ether to the owner.\");\r\n\r\n        // Emit the event for the purchase\r\n        emit EnergyPurchased(\r\n            _id,\r\n            msg.sender,\r\n            _amount,\r\n            totalCost,\r\n            block.timestamp\r\n        );\r\n    }\r\n\r\n    /**\r\n     * @dev Retrieves all energy listings.\r\n     */\r\n    function getEnergyListings() public view returns (EnergyListing[] memory) {\r\n        EnergyListing[] memory allListings = new EnergyListing[](\r\n            numberOfListings\r\n        );\r\n\r\n        for (uint256 i = 0; i < numberOfListings; i++) {\r\n            EnergyListing storage item = energyListings[i];\r\n            allListings[i] = item;\r\n        }\r\n\r\n        return allListings;\r\n    }\r\n\r\n    /**\r\n     * @dev Retrieves a specific energy listing by ID.\r\n     */\r\n    function getEnergyListing(\r\n        uint256 _id\r\n    ) public view returns (EnergyListing memory) {\r\n        require(_id < numberOfListings, \"Energy listing does not exist.\");\r\n        return energyListings[_id];\r\n    }\r\n\r\n    /**\r\n     * @dev Retrieves all energy listings created by a specific owner.\r\n     */\r\n    function getEnergyListingsByOwner(\r\n        address _owner\r\n    ) public view returns (EnergyListing[] memory) {\r\n        uint256 count = 0;\r\n\r\n        for (uint256 i = 0; i < numberOfListings; i++) {\r\n            if (energyListings[i].owner == _owner) {\r\n                count++;\r\n            }\r\n        }\r\n\r\n        EnergyListing[] memory ownerListings = new EnergyListing[](count);\r\n        uint256 index = 0;\r\n\r\n        for (uint256 i = 0; i < numberOfListings; i++) {\r\n            if (energyListings[i].owner == _owner) {\r\n                ownerListings[index] = energyListings[i];\r\n                index++;\r\n            }\r\n        }\r\n\r\n        return ownerListings;\r\n    }\r\n\r\n    /**\r\n     * @dev Retrieves the purchase history for a specific energy listing.\r\n     */\r\n    function getPurchaseHistory(\r\n        uint256 _id\r\n    ) public view returns (Purchase[] memory) {\r\n        require(_id < numberOfListings, \"Energy listing does not exist.\");\r\n        return purchaseHistory[_id];\r\n    }\r\n\r\n    /**\r\n     * @dev Retrieves all purchases made by a specific user across listings.\r\n     * @param _user Address of the user.\r\n     * @return An array of PurchaseDetail structs representing the user's purchases.\r\n     */\r\n    function getUserPurchases(\r\n        address _user\r\n    ) public view returns (PurchaseDetail[] memory) {\r\n        return userPurchases[_user];\r\n    }\r\n}\r\n",
  "sourcePath": "C:\\Users\\Admin\\cf2\\EnergyTrading\\TruffleWeb3\\contracts\\EnergyTrading.sol",
  "compiler": {
    "name": "solc",
    "version": "0.8.9+commit.e5eed63a.Emscripten.clang"
  },
  "schemaVersion": "3.4.16",
  "updatedAt": "2024-11-19T12:54:30.155Z",
  "networkType": "ethereum",
  "devdoc": {
    "kind": "dev",
    "methods": {
      "buyEnergy(uint256,uint256)": {
        "details": "Allows users to purchase energy units from a listing."
      },
      "createEnergyListing(address,string,uint256,uint256,string,string,string)": {
        "details": "Creates a new energy listing."
      },
      "getEnergyListing(uint256)": {
        "details": "Retrieves a specific energy listing by ID."
      },
      "getEnergyListings()": {
        "details": "Retrieves all energy listings."
      },
      "getEnergyListingsByOwner(address)": {
        "details": "Retrieves all energy listings created by a specific owner."
      },
      "getPurchaseHistory(uint256)": {
        "details": "Retrieves the purchase history for a specific energy listing."
      },
      "getUserPurchases(address)": {
        "details": "Retrieves all purchases made by a specific user across listings.",
        "params": {
          "_user": "Address of the user."
        },
        "returns": {
          "_0": "An array of PurchaseDetail structs representing the user's purchases."
        }
      }
    },
    "version": 1
  },
  "userdoc": {
    "kind": "user",
    "methods": {},
    "version": 1
  }
}