{
  "contractName": "EnergyTrading",
  "abi": [
    {
      "anonymous": false,
      "inputs": [
        {
          "indexed": true,
          "internalType": "uint256",
          "name": "id",
          "type": "uint256"
        },
        {
          "indexed": true,
          "internalType": "address",
          "name": "owner",
          "type": "address"
        },
        {
          "indexed": false,
          "internalType": "string",
          "name": "name",
          "type": "string"
        },
        {
          "indexed": false,
          "internalType": "uint256",
          "name": "costPerUnit",
          "type": "uint256"
        },
        {
          "indexed": false,
          "internalType": "uint256",
          "name": "energyAmount",
          "type": "uint256"
        },
        {
          "indexed": false,
          "internalType": "string",
          "name": "fuelType",
          "type": "string"
        },
        {
          "indexed": false,
          "internalType": "string",
          "name": "description",
          "type": "string"
        },
        {
          "indexed": false,
          "internalType": "string",
          "name": "image",
          "type": "string"
        },
        {
          "indexed": false,
          "internalType": "uint256",
          "name": "createdAt",
          "type": "uint256"
        }
      ],
      "name": "EnergyListingCreated",
      "type": "event"
    },
    {
      "anonymous": false,
      "inputs": [
        {
          "indexed": true,
          "internalType": "uint256",
          "name": "id",
          "type": "uint256"
        },
        {
          "indexed": true,
          "internalType": "address",
          "name": "buyer",
          "type": "address"
        },
        {
          "indexed": false,
          "internalType": "uint256",
          "name": "amount",
          "type": "uint256"
        },
        {
          "indexed": false,
          "internalType": "uint256",
          "name": "totalCost",
          "type": "uint256"
        },
        {
          "indexed": false,
          "internalType": "uint256",
          "name": "timestamp",
          "type": "uint256"
        }
      ],
      "name": "EnergyPurchased",
      "type": "event"
    },
    {
      "inputs": [
        {
          "internalType": "uint256",
          "name": "",
          "type": "uint256"
        }
      ],
      "name": "energyListings",
      "outputs": [
        {
          "internalType": "address",
          "name": "owner",
          "type": "address"
        },
        {
          "internalType": "string",
          "name": "name",
          "type": "string"
        },
        {
          "internalType": "uint256",
          "name": "costPerUnit",
          "type": "uint256"
        },
        {
          "internalType": "uint256",
          "name": "energyAmount",
          "type": "uint256"
        },
        {
          "internalType": "string",
          "name": "fuelType",
          "type": "string"
        },
        {
          "internalType": "string",
          "name": "description",
          "type": "string"
        },
        {
          "internalType": "string",
          "name": "image",
          "type": "string"
        },
        {
          "internalType": "uint256",
          "name": "amountSold",
          "type": "uint256"
        },
        {
          "internalType": "uint256",
          "name": "createdAt",
          "type": "uint256"
        }
      ],
      "stateMutability": "view",
      "type": "function",
      "constant": true
    },
    {
      "inputs": [],
      "name": "numberOfListings",
      "outputs": [
        {
          "internalType": "uint256",
          "name": "",
          "type": "uint256"
        }
      ],
      "stateMutability": "view",
      "type": "function",
      "constant": true
    },
    {
      "inputs": [
        {
          "internalType": "uint256",
          "name": "",
          "type": "uint256"
        },
        {
          "internalType": "uint256",
          "name": "",
          "type": "uint256"
        }
      ],
      "name": "purchaseHistory",
      "outputs": [
        {
          "internalType": "address",
          "name": "buyer",
          "type": "address"
        },
        {
          "internalType": "uint256",
          "name": "amount",
          "type": "uint256"
        },
        {
          "internalType": "uint256",
          "name": "timestamp",
          "type": "uint256"
        }
      ],
      "stateMutability": "view",
      "type": "function",
      "constant": true
    },
    {
      "inputs": [
        {
          "internalType": "address",
          "name": "",
          "type": "address"
        },
        {
          "internalType": "uint256",
          "name": "",
          "type": "uint256"
        }
      ],
      "name": "userPurchases",
      "outputs": [
        {
          "internalType": "uint256",
          "name": "listingId",
          "type": "uint256"
        },
        {
          "internalType": "uint256",
          "name": "amount",
          "type": "uint256"
        },
        {
          "internalType": "uint256",
          "name": "timestamp",
          "type": "uint256"
        }
      ],
      "stateMutability": "view",
      "type": "function",
      "constant": true
    },
    {
      "inputs": [
        {
          "internalType": "address",
          "name": "_owner",
          "type": "address"
        },
        {
          "internalType": "string",
          "name": "_name",
          "type": "string"
        },
        {
          "internalType": "uint256",
          "name": "_costPerUnit",
          "type": "uint256"
        },
        {
          "internalType": "uint256",
          "name": "_energyAmount",
          "type": "uint256"
        },
        {
          "internalType": "string",
          "name": "_fuelType",
          "type": "string"
        },
        {
          "internalType": "string",
          "name": "_description",
          "type": "string"
        },
        {
          "internalType": "string",
          "name": "_image",
          "type": "string"
        }
      ],
      "name": "createEnergyListing",
      "outputs": [
        {
          "internalType": "uint256",
          "name": "",
          "type": "uint256"
        }
      ],
      "stateMutability": "nonpayable",
      "type": "function"
    },
    {
      "inputs": [
        {
          "internalType": "uint256",
          "name": "_id",
          "type": "uint256"
        },
        {
          "internalType": "uint256",
          "name": "_amount",
          "type": "uint256"
        }
      ],
      "name": "buyEnergy",
      "outputs": [],
      "stateMutability": "payable",
      "type": "function",
      "payable": true
    },
    {
      "inputs": [],
      "name": "getEnergyListings",
      "outputs": [
        {
          "components": [
            {
              "internalType": "address",
              "name": "owner",
              "type": "address"
            },
            {
              "internalType": "string",
              "name": "name",
              "type": "string"
            },
            {
              "internalType": "uint256",
              "name": "costPerUnit",
              "type": "uint256"
            },
            {
              "internalType": "uint256",
              "name": "energyAmount",
              "type": "uint256"
            },
            {
              "internalType": "string",
              "name": "fuelType",
              "type": "string"
            },
            {
              "internalType": "string",
              "name": "description",
              "type": "string"
            },
            {
              "internalType": "string",
              "name": "image",
              "type": "string"
            },
            {
              "internalType": "uint256",
              "name": "amountSold",
              "type": "uint256"
            },
            {
              "internalType": "uint256",
              "name": "createdAt",
              "type": "uint256"
            }
          ],
          "internalType": "struct EnergyTrading.EnergyListing[]",
          "name": "",
          "type": "tuple[]"
        }
      ],
      "stateMutability": "view",
      "type": "function",
      "constant": true
    },
    {
      "inputs": [
        {
          "internalType": "uint256",
          "name": "_id",
          "type": "uint256"
        }
      ],
      "name": "getEnergyListing",
      "outputs": [
        {
          "components": [
            {
              "internalType": "address",
              "name": "owner",
              "type": "address"
            },
            {
              "internalType": "string",
              "name": "name",
              "type": "string"
            },
            {
              "internalType": "uint256",
              "name": "costPerUnit",
              "type": "uint256"
            },
            {
              "internalType": "uint256",
              "name": "energyAmount",
              "type": "uint256"
            },
            {
              "internalType": "string",
              "name": "fuelType",
              "type": "string"
            },
            {
              "internalType": "string",
              "name": "description",
              "type": "string"
            },
            {
              "internalType": "string",
              "name": "image",
              "type": "string"
            },
            {
              "internalType": "uint256",
              "name": "amountSold",
              "type": "uint256"
            },
            {
              "internalType": "uint256",
              "name": "createdAt",
              "type": "uint256"
            }
          ],
          "internalType": "struct EnergyTrading.EnergyListing",
          "name": "",
          "type": "tuple"
        }
      ],
      "stateMutability": "view",
      "type": "function",
      "constant": true
    },
    {
      "inputs": [
        {
          "internalType": "address",
          "name": "_owner",
          "type": "address"
        }
      ],
      "name": "getEnergyListingsByOwner",
      "outputs": [
        {
          "components": [
            {
              "internalType": "address",
              "name": "owner",
              "type": "address"
            },
            {
              "internalType": "string",
              "name": "name",
              "type": "string"
            },
            {
              "internalType": "uint256",
              "name": "costPerUnit",
              "type": "uint256"
            },
            {
              "internalType": "uint256",
              "name": "energyAmount",
              "type": "uint256"
            },
            {
              "internalType": "string",
              "name": "fuelType",
              "type": "string"
            },
            {
              "internalType": "string",
              "name": "description",
              "type": "string"
            },
            {
              "internalType": "string",
              "name": "image",
              "type": "string"
            },
            {
              "internalType": "uint256",
              "name": "amountSold",
              "type": "uint256"
            },
            {
              "internalType": "uint256",
              "name": "createdAt",
              "type": "uint256"
            }
          ],
          "internalType": "struct EnergyTrading.EnergyListing[]",
          "name": "",
          "type": "tuple[]"
        }
      ],
      "stateMutability": "view",
      "type": "function",
      "constant": true
    },
    {
      "inputs": [
        {
          "internalType": "uint256",
          "name": "_id",
          "type": "uint256"
        }
      ],
      "name": "getPurchaseHistory",
      "outputs": [
        {
          "components": [
            {
              "internalType": "address",
              "name": "buyer",
              "type": "address"
            },
            {
              "internalType": "uint256",
              "name": "amount",
              "type": "uint256"
            },
            {
              "internalType": "uint256",
              "name": "timestamp",
              "type": "uint256"
            }
          ],
          "internalType": "struct EnergyTrading.Purchase[]",
          "name": "",
          "type": "tuple[]"
        }
      ],
      "stateMutability": "view",
      "type": "function",
      "constant": true
    },
    {
      "inputs": [
        {
          "internalType": "address",
          "name": "_user",
          "type": "address"
        }
      ],
      "name": "getUserPurchases",
      "outputs": [
        {
          "components": [
            {
              "internalType": "uint256",
              "name": "listingId",
              "type": "uint256"
            },
            {
              "internalType": "uint256",
              "name": "amount",
              "type": "uint256"
            },
            {
              "internalType": "uint256",
              "name": "timestamp",
              "type": "uint256"
            }
          ],
          "internalType": "struct EnergyTrading.PurchaseDetail[]",
          "name": "",
          "type": "tuple[]"
        }
      ],
      "stateMutability": "view",
      "type": "function",
      "constant": true
    }
  ],
  "bytecode": "0x6080604052600060035534801561001557600080fd5b5061303a806100256000396000f3fe60806040526004361061009c5760003560e01c8063c6e5d8f611610064578063c6e5d8f6146101ca578063cdb6d52d14610207578063cf2c033414610223578063e0ba5b4414610262578063e43e422e1461028d578063f4bf28a0146102ca5761009c565b80630f8ff4a1146100a157806365e111f8146100de5780638127df721461012357806390d098291461016057806395f58ab81461018b575b600080fd5b3480156100ad57600080fd5b506100c860048036038101906100c39190611c41565b610307565b6040516100d59190611ecb565b60405180910390f35b3480156100ea57600080fd5b5061010560048036038101906101009190611f19565b6107a2565b60405161011a99989796959493929190611fae565b60405180910390f35b34801561012f57600080fd5b5061014a6004803603810190610145919061218c565b610a30565b604051610157919061229e565b60405180910390f35b34801561016c57600080fd5b50610175610cf9565b6040516101829190611ecb565b60405180910390f35b34801561019757600080fd5b506101b260048036038101906101ad91906122b9565b611085565b6040516101c1939291906122f9565b60405180910390f35b3480156101d657600080fd5b506101f160048036038101906101ec9190611c41565b6110ec565b6040516101fe9190612421565b60405180910390f35b610221600480360381019061021c91906122b9565b6111a8565b005b34801561022f57600080fd5b5061024a60048036038101906102459190612443565b611626565b60405161025993929190612483565b60405180910390f35b34801561026e57600080fd5b5061027761166d565b604051610284919061229e565b60405180910390f35b34801561029957600080fd5b506102b460048036038101906102af9190611f19565b611673565b6040516102c19190612594565b60405180910390f35b3480156102d657600080fd5b506102f160048036038101906102ec9190611f19565b6119aa565b6040516102fe91906126a7565b60405180910390f35b60606000805b6003548110156103a2578373ffffffffffffffffffffffffffffffffffffffff1660008083815260200190815260200160002060000160009054906101000a900473ffffffffffffffffffffffffffffffffffffffff1673ffffffffffffffffffffffffffffffffffffffff16141561038f57818061038b906126f8565b9250505b808061039a906126f8565b91505061030d565b5060008167ffffffffffffffff8111156103bf576103be612061565b5b6040519080825280602002602001820160405280156103f857816020015b6103e5611aca565b8152602001906001900390816103dd5790505b5090506000805b600354811015610796578573ffffffffffffffffffffffffffffffffffffffff1660008083815260200190815260200160002060000160009054906101000a900473ffffffffffffffffffffffffffffffffffffffff1673ffffffffffffffffffffffffffffffffffffffff16141561078357600080828152602001908152602001600020604051806101200160405290816000820160009054906101000a900473ffffffffffffffffffffffffffffffffffffffff1673ffffffffffffffffffffffffffffffffffffffff1673ffffffffffffffffffffffffffffffffffffffff1681526020016001820180546104f690612770565b80601f016020809104026020016040519081016040528092919081815260200182805461052290612770565b801561056f5780601f106105445761010080835404028352916020019161056f565b820191906000526020600020905b81548152906001019060200180831161055257829003601f168201915b50505050508152602001600282015481526020016003820154815260200160048201805461059c90612770565b80601f01602080910402602001604051908101604052809291908181526020018280546105c890612770565b80156106155780601f106105ea57610100808354040283529160200191610615565b820191906000526020600020905b8154815290600101906020018083116105f857829003601f168201915b5050505050815260200160058201805461062e90612770565b80601f016020809104026020016040519081016040528092919081815260200182805461065a90612770565b80156106a75780601f1061067c576101008083540402835291602001916106a7565b820191906000526020600020905b81548152906001019060200180831161068a57829003601f168201915b505050505081526020016006820180546106c090612770565b80601f01602080910402602001604051908101604052809291908181526020018280546106ec90612770565b80156107395780601f1061070e57610100808354040283529160200191610739565b820191906000526020600020905b81548152906001019060200180831161071c57829003601f168201915b5050505050815260200160078201548152602001600882015481525050838381518110610769576107686127a2565b5b6020026020010181905250818061077f906126f8565b9250505b808061078e906126f8565b9150506103ff565b50819350505050919050565b60006020528060005260406000206000915090508060000160009054906101000a900473ffffffffffffffffffffffffffffffffffffffff16908060010180546107eb90612770565b80601f016020809104026020016040519081016040528092919081815260200182805461081790612770565b80156108645780601f1061083957610100808354040283529160200191610864565b820191906000526020600020905b81548152906001019060200180831161084757829003601f168201915b50505050509080600201549080600301549080600401805461088590612770565b80601f01602080910402602001604051908101604052809291908181526020018280546108b190612770565b80156108fe5780601f106108d3576101008083540402835291602001916108fe565b820191906000526020600020905b8154815290600101906020018083116108e157829003601f168201915b50505050509080600501805461091390612770565b80601f016020809104026020016040519081016040528092919081815260200182805461093f90612770565b801561098c5780601f106109615761010080835404028352916020019161098c565b820191906000526020600020905b81548152906001019060200180831161096f57829003601f168201915b5050505050908060060180546109a190612770565b80601f01602080910402602001604051908101604052809291908181526020018280546109cd90612770565b8015610a1a5780601f106109ef57610100808354040283529160200191610a1a565b820191906000526020600020905b8154815290600101906020018083116109fd57829003601f168201915b5050505050908060070154908060080154905089565b6000808611610a74576040517f08c379a0000000000000000000000000000000000000000000000000000000008152600401610a6b90612843565b60405180910390fd5b60008511610ab7576040517f08c379a0000000000000000000000000000000000000000000000000000000008152600401610aae906128d5565b60405180910390fd5b6000875111610afb576040517f08c379a0000000000000000000000000000000000000000000000000000000008152600401610af290612941565b60405180910390fd5b6000845111610b3f576040517f08c379a0000000000000000000000000000000000000000000000000000000008152600401610b36906129ad565b60405180910390fd5b6000825111610b83576040517f08c379a0000000000000000000000000000000000000000000000000000000008152600401610b7a90612a19565b60405180910390fd5b600080600060035481526020019081526020016000209050888160000160006101000a81548173ffffffffffffffffffffffffffffffffffffffff021916908373ffffffffffffffffffffffffffffffffffffffff16021790555087816001019080519060200190610bf6929190611b2c565b5086816002018190555085816003018190555084816004019080519060200190610c21929190611b2c565b5083816005019080519060200190610c3a929190611b2c565b5082816006019080519060200190610c53929190611b2c565b50600081600701819055504281600801819055508873ffffffffffffffffffffffffffffffffffffffff166003547f6ead10b89732c5d2b6de85d6c9b92e3235b6eada3130c2bef46e3173063772ec8a8a8a8a8a8a42604051610cbc9796959493929190612a39565b60405180910390a360036000815480929190610cd7906126f8565b91905055506001600354610ceb9190612ac4565b915050979650505050505050565b6060600060035467ffffffffffffffff811115610d1957610d18612061565b5b604051908082528060200260200182016040528015610d5257816020015b610d3f611aca565b815260200190600190039081610d375790505b50905060005b60035481101561107d576000806000838152602001908152602001600020905080604051806101200160405290816000820160009054906101000a900473ffffffffffffffffffffffffffffffffffffffff1673ffffffffffffffffffffffffffffffffffffffff1673ffffffffffffffffffffffffffffffffffffffff168152602001600182018054610deb90612770565b80601f0160208091040260200160405190810160405280929190818152602001828054610e1790612770565b8015610e645780601f10610e3957610100808354040283529160200191610e64565b820191906000526020600020905b815481529060010190602001808311610e4757829003601f168201915b505050505081526020016002820154815260200160038201548152602001600482018054610e9190612770565b80601f0160208091040260200160405190810160405280929190818152602001828054610ebd90612770565b8015610f0a5780601f10610edf57610100808354040283529160200191610f0a565b820191906000526020600020905b815481529060010190602001808311610eed57829003601f168201915b50505050508152602001600582018054610f2390612770565b80601f0160208091040260200160405190810160405280929190818152602001828054610f4f90612770565b8015610f9c5780601f10610f7157610100808354040283529160200191610f9c565b820191906000526020600020905b815481529060010190602001808311610f7f57829003601f168201915b50505050508152602001600682018054610fb590612770565b80601f0160208091040260200160405190810160405280929190818152602001828054610fe190612770565b801561102e5780601f106110035761010080835404028352916020019161102e565b820191906000526020600020905b81548152906001019060200180831161101157829003601f168201915b505050505081526020016007820154815260200160088201548152505083838151811061105e5761105d6127a2565b5b6020026020010181905250508080611075906126f8565b915050610d58565b508091505090565b600160205281600052604060002081815481106110a157600080fd5b9060005260206000209060030201600091509150508060000160009054906101000a900473ffffffffffffffffffffffffffffffffffffffff16908060010154908060020154905083565b6060600260008373ffffffffffffffffffffffffffffffffffffffff1673ffffffffffffffffffffffffffffffffffffffff168152602001908152602001600020805480602002602001604051908101604052809291908181526020016000905b8282101561119d578382906000526020600020906003020160405180606001604052908160008201548152602001600182015481526020016002820154815250508152602001906001019061114d565b505050509050919050565b600080600084815260200190815260200160002090506000816003015411611205576040517f08c379a00000000000000000000000000000000000000000000000000000000081526004016111fc90612b44565b60405180910390fd5b60008211611248576040517f08c379a000000000000000000000000000000000000000000000000000000000815260040161123f90612bd6565b60405180910390fd5b818160070154826003015461125d9190612ac4565b101561129e576040517f08c379a000000000000000000000000000000000000000000000000000000000815260040161129590612c42565b60405180910390fd5b6000670de0b6b3a76400008383600201546112b99190612c62565b6112c39190612ceb565b9050803414611307576040517f08c379a00000000000000000000000000000000000000000000000000000000081526004016112fe90612d68565b60405180910390fd5b803414348260405160200161131d929190612e72565b6040516020818303038152906040529061136d576040517f08c379a00000000000000000000000000000000000000000000000000000000081526004016113649190612eb4565b60405180910390fd5b50828260070160008282546113829190612ed6565b92505081905550600060405180606001604052803373ffffffffffffffffffffffffffffffffffffffff1681526020018581526020014281525090506001600086815260200190815260200160002081908060018154018082558091505060019003906000526020600020906003020160009091909190915060008201518160000160006101000a81548173ffffffffffffffffffffffffffffffffffffffff021916908373ffffffffffffffffffffffffffffffffffffffff16021790555060208201518160010155604082015181600201555050600260003373ffffffffffffffffffffffffffffffffffffffff1673ffffffffffffffffffffffffffffffffffffffff1681526020019081526020016000206040518060600160405280878152602001868152602001428152509080600181540180825580915050600190039060005260206000209060030201600090919091909150600082015181600001556020820151816001015560408201518160020155505060008360000160009054906101000a900473ffffffffffffffffffffffffffffffffffffffff1673ffffffffffffffffffffffffffffffffffffffff168360405161154590612f5d565b60006040518083038185875af1925050503d8060008114611582576040519150601f19603f3d011682016040523d82523d6000602084013e611587565b606091505b50509050806115cb576040517f08c379a00000000000000000000000000000000000000000000000000000000081526004016115c290612fe4565b60405180910390fd5b3373ffffffffffffffffffffffffffffffffffffffff16867fe63d1c123fef0f11fc03d70f50d1e85dc59dcfb2c46223c8c314cc39a11a9a0087864260405161161693929190612483565b60405180910390a3505050505050565b6002602052816000526040600020818154811061164257600080fd5b9060005260206000209060030201600091509150508060000154908060010154908060020154905083565b60035481565b61167b611aca565b60035482106116bf576040517f08c379a00000000000000000000000000000000000000000000000000000000081526004016116b690612b44565b60405180910390fd5b600080838152602001908152602001600020604051806101200160405290816000820160009054906101000a900473ffffffffffffffffffffffffffffffffffffffff1673ffffffffffffffffffffffffffffffffffffffff1673ffffffffffffffffffffffffffffffffffffffff16815260200160018201805461174390612770565b80601f016020809104026020016040519081016040528092919081815260200182805461176f90612770565b80156117bc5780601f10611791576101008083540402835291602001916117bc565b820191906000526020600020905b81548152906001019060200180831161179f57829003601f168201915b5050505050815260200160028201548152602001600382015481526020016004820180546117e990612770565b80601f016020809104026020016040519081016040528092919081815260200182805461181590612770565b80156118625780601f1061183757610100808354040283529160200191611862565b820191906000526020600020905b81548152906001019060200180831161184557829003601f168201915b5050505050815260200160058201805461187b90612770565b80601f01602080910402602001604051908101604052809291908181526020018280546118a790612770565b80156118f45780601f106118c9576101008083540402835291602001916118f4565b820191906000526020600020905b8154815290600101906020018083116118d757829003601f168201915b5050505050815260200160068201805461190d90612770565b80601f016020809104026020016040519081016040528092919081815260200182805461193990612770565b80156119865780601f1061195b57610100808354040283529160200191611986565b820191906000526020600020905b81548152906001019060200180831161196957829003601f168201915b50505050508152602001600782015481526020016008820154815250509050919050565b606060035482106119f0576040517f08c379a00000000000000000000000000000000000000000000000000000000081526004016119e790612b44565b60405180910390fd5b60016000838152602001908152602001600020805480602002602001604051908101604052809291908181526020016000905b82821015611abf57838290600052602060002090600302016040518060600160405290816000820160009054906101000a900473ffffffffffffffffffffffffffffffffffffffff1673ffffffffffffffffffffffffffffffffffffffff1673ffffffffffffffffffffffffffffffffffffffff1681526020016001820154815260200160028201548152505081526020019060010190611a23565b505050509050919050565b604051806101200160405280600073ffffffffffffffffffffffffffffffffffffffff16815260200160608152602001600081526020016000815260200160608152602001606081526020016060815260200160008152602001600081525090565b828054611b3890612770565b90600052602060002090601f016020900481019282611b5a5760008555611ba1565b82601f10611b7357805160ff1916838001178555611ba1565b82800160010185558215611ba1579182015b82811115611ba0578251825591602001919060010190611b85565b5b509050611bae9190611bb2565b5090565b5b80821115611bcb576000816000905550600101611bb3565b5090565b6000604051905090565b600080fd5b600080fd5b600073ffffffffffffffffffffffffffffffffffffffff82169050919050565b6000611c0e82611be3565b9050919050565b611c1e81611c03565b8114611c2957600080fd5b50565b600081359050611c3b81611c15565b92915050565b600060208284031215611c5757611c56611bd9565b5b6000611c6584828501611c2c565b91505092915050565b600081519050919050565b600082825260208201905092915050565b6000819050602082019050919050565b611ca381611c03565b82525050565b600081519050919050565b600082825260208201905092915050565b60005b83811015611ce3578082015181840152602081019050611cc8565b83811115611cf2576000848401525b50505050565b6000601f19601f8301169050919050565b6000611d1482611ca9565b611d1e8185611cb4565b9350611d2e818560208601611cc5565b611d3781611cf8565b840191505092915050565b6000819050919050565b611d5581611d42565b82525050565b600061012083016000830151611d746000860182611c9a565b5060208301518482036020860152611d8c8282611d09565b9150506040830151611da16040860182611d4c565b506060830151611db46060860182611d4c565b5060808301518482036080860152611dcc8282611d09565b91505060a083015184820360a0860152611de68282611d09565b91505060c083015184820360c0860152611e008282611d09565b91505060e0830151611e1560e0860182611d4c565b50610100830151611e2a610100860182611d4c565b508091505092915050565b6000611e418383611d5b565b905092915050565b6000602082019050919050565b6000611e6182611c6e565b611e6b8185611c79565b935083602082028501611e7d85611c8a565b8060005b85811015611eb95784840389528151611e9a8582611e35565b9450611ea583611e49565b925060208a01995050600181019050611e81565b50829750879550505050505092915050565b60006020820190508181036000830152611ee58184611e56565b905092915050565b611ef681611d42565b8114611f0157600080fd5b50565b600081359050611f1381611eed565b92915050565b600060208284031215611f2f57611f2e611bd9565b5b6000611f3d84828501611f04565b91505092915050565b611f4f81611c03565b82525050565b600082825260208201905092915050565b6000611f7182611ca9565b611f7b8185611f55565b9350611f8b818560208601611cc5565b611f9481611cf8565b840191505092915050565b611fa881611d42565b82525050565b600061012082019050611fc4600083018c611f46565b8181036020830152611fd6818b611f66565b9050611fe5604083018a611f9f565b611ff26060830189611f9f565b81810360808301526120048188611f66565b905081810360a08301526120188187611f66565b905081810360c083015261202c8186611f66565b905061203b60e0830185611f9f565b612049610100830184611f9f565b9a9950505050505050505050565b600080fd5b600080fd5b7f4e487b7100000000000000000000000000000000000000000000000000000000600052604160045260246000fd5b61209982611cf8565b810181811067ffffffffffffffff821117156120b8576120b7612061565b5b80604052505050565b60006120cb611bcf565b90506120d78282612090565b919050565b600067ffffffffffffffff8211156120f7576120f6612061565b5b61210082611cf8565b9050602081019050919050565b82818337600083830152505050565b600061212f61212a846120dc565b6120c1565b90508281526020810184848401111561214b5761214a61205c565b5b61215684828561210d565b509392505050565b600082601f83011261217357612172612057565b5b813561218384826020860161211c565b91505092915050565b600080600080600080600060e0888a0312156121ab576121aa611bd9565b5b60006121b98a828b01611c2c565b975050602088013567ffffffffffffffff8111156121da576121d9611bde565b5b6121e68a828b0161215e565b96505060406121f78a828b01611f04565b95505060606122088a828b01611f04565b945050608088013567ffffffffffffffff81111561222957612228611bde565b5b6122358a828b0161215e565b93505060a088013567ffffffffffffffff81111561225657612255611bde565b5b6122628a828b0161215e565b92505060c088013567ffffffffffffffff81111561228357612282611bde565b5b61228f8a828b0161215e565b91505092959891949750929550565b60006020820190506122b36000830184611f9f565b92915050565b600080604083850312156122d0576122cf611bd9565b5b60006122de85828601611f04565b92505060206122ef85828601611f04565b9150509250929050565b600060608201905061230e6000830186611f46565b61231b6020830185611f9f565b6123286040830184611f9f565b949350505050565b600081519050919050565b600082825260208201905092915050565b6000819050602082019050919050565b6060820160008201516123726000850182611d4c565b5060208201516123856020850182611d4c565b5060408201516123986040850182611d4c565b50505050565b60006123aa838361235c565b60608301905092915050565b6000602082019050919050565b60006123ce82612330565b6123d8818561233b565b93506123e38361234c565b8060005b838110156124145781516123fb888261239e565b9750612406836123b6565b9250506001810190506123e7565b5085935050505092915050565b6000602082019050818103600083015261243b81846123c3565b905092915050565b6000806040838503121561245a57612459611bd9565b5b600061246885828601611c2c565b925050602061247985828601611f04565b9150509250929050565b60006060820190506124986000830186611f9f565b6124a56020830185611f9f565b6124b26040830184611f9f565b949350505050565b6000610120830160008301516124d36000860182611c9a565b50602083015184820360208601526124eb8282611d09565b91505060408301516125006040860182611d4c565b5060608301516125136060860182611d4c565b506080830151848203608086015261252b8282611d09565b91505060a083015184820360a08601526125458282611d09565b91505060c083015184820360c086015261255f8282611d09565b91505060e083015161257460e0860182611d4c565b50610100830151612589610100860182611d4c565b508091505092915050565b600060208201905081810360008301526125ae81846124ba565b905092915050565b600081519050919050565b600082825260208201905092915050565b6000819050602082019050919050565b6060820160008201516125f86000850182611c9a565b50602082015161260b6020850182611d4c565b50604082015161261e6040850182611d4c565b50505050565b600061263083836125e2565b60608301905092915050565b6000602082019050919050565b6000612654826125b6565b61265e81856125c1565b9350612669836125d2565b8060005b8381101561269a5781516126818882612624565b975061268c8361263c565b92505060018101905061266d565b5085935050505092915050565b600060208201905081810360008301526126c18184612649565b905092915050565b7f4e487b7100000000000000000000000000000000000000000000000000000000600052601160045260246000fd5b600061270382611d42565b91507fffffffffffffffffffffffffffffffffffffffffffffffffffffffffffffffff821415612736576127356126c9565b5b600182019050919050565b7f4e487b7100000000000000000000000000000000000000000000000000000000600052602260045260246000fd5b6000600282049050600182168061278857607f821691505b6020821081141561279c5761279b612741565b5b50919050565b7f4e487b7100000000000000000000000000000000000000000000000000000000600052603260045260246000fd5b7f436f73742070657220756e6974206d757374206265206772656174657220746860008201527f616e207a65726f2e000000000000000000000000000000000000000000000000602082015250565b600061282d602883611f55565b9150612838826127d1565b604082019050919050565b6000602082019050818103600083015261285c81612820565b9050919050565b7f456e6572677920616d6f756e74206d757374206265206772656174657220746860008201527f616e207a65726f2e000000000000000000000000000000000000000000000000602082015250565b60006128bf602883611f55565b91506128ca82612863565b604082019050919050565b600060208201905081810360008301526128ee816128b2565b9050919050565b7f436f6d70616e79206e616d652069732072657175697265642e00000000000000600082015250565b600061292b601983611f55565b9150612936826128f5565b602082019050919050565b6000602082019050818103600083015261295a8161291e565b9050919050565b7f4675656c20747970652069732072657175697265642e00000000000000000000600082015250565b6000612997601683611f55565b91506129a282612961565b602082019050919050565b600060208201905081810360008301526129c68161298a565b9050919050565b7f496d6167652055524c2069732072657175697265642e00000000000000000000600082015250565b6000612a03601683611f55565b9150612a0e826129cd565b602082019050919050565b60006020820190508181036000830152612a32816129f6565b9050919050565b600060e0820190508181036000830152612a53818a611f66565b9050612a626020830189611f9f565b612a6f6040830188611f9f565b8181036060830152612a818187611f66565b90508181036080830152612a958186611f66565b905081810360a0830152612aa98185611f66565b9050612ab860c0830184611f9f565b98975050505050505050565b6000612acf82611d42565b9150612ada83611d42565b925082821015612aed57612aec6126c9565b5b828203905092915050565b7f456e65726779206c697374696e6720646f6573206e6f742065786973742e0000600082015250565b6000612b2e601e83611f55565b9150612b3982612af8565b602082019050919050565b60006020820190508181036000830152612b5d81612b21565b9050919050565b7f507572636861736520616d6f756e74206d75737420626520677265617465722060008201527f7468616e207a65726f2e00000000000000000000000000000000000000000000602082015250565b6000612bc0602a83611f55565b9150612bcb82612b64565b604082019050919050565b60006020820190508181036000830152612bef81612bb3565b9050919050565b7f4e6f7420656e6f75676820656e6572677920617661696c61626c652e00000000600082015250565b6000612c2c601c83611f55565b9150612c3782612bf6565b602082019050919050565b60006020820190508181036000830152612c5b81612c1f565b9050919050565b6000612c6d82611d42565b9150612c7883611d42565b9250817fffffffffffffffffffffffffffffffffffffffffffffffffffffffffffffffff0483118215151615612cb157612cb06126c9565b5b828202905092915050565b7f4e487b7100000000000000000000000000000000000000000000000000000000600052601260045260246000fd5b6000612cf682611d42565b9150612d0183611d42565b925082612d1157612d10612cbc565b5b828204905092915050565b7f496e636f72726563742045746865722076616c75652073656e742e0000000000600082015250565b6000612d52601b83611f55565b9150612d5d82612d1c565b602082019050919050565b60006020820190508181036000830152612d8181612d45565b9050919050565b600081905092915050565b7f496e636f72726563742045746865722076616c75652073656e742e20596f752060008201527f73656e743a200000000000000000000000000000000000000000000000000000602082015250565b6000612def602683612d88565b9150612dfa82612d93565b602682019050919050565b6000819050919050565b612e20612e1b82611d42565b612e05565b82525050565b7f2045787065637465643a20000000000000000000000000000000000000000000600082015250565b6000612e5c600b83612d88565b9150612e6782612e26565b600b82019050919050565b6000612e7d82612de2565b9150612e898285612e0f565b602082019150612e9882612e4f565b9150612ea48284612e0f565b6020820191508190509392505050565b60006020820190508181036000830152612ece8184611f66565b905092915050565b6000612ee182611d42565b9150612eec83611d42565b9250827fffffffffffffffffffffffffffffffffffffffffffffffffffffffffffffffff03821115612f2157612f206126c9565b5b828201905092915050565b600081905092915050565b50565b6000612f47600083612f2c565b9150612f5282612f37565b600082019050919050565b6000612f6882612f3a565b9150819050919050565b7f4661696c656420746f2073656e6420457468657220746f20746865206f776e6560008201527f722e000000000000000000000000000000000000000000000000000000000000602082015250565b6000612fce602283611f55565b9150612fd982612f72565b604082019050919050565b60006020820190508181036000830152612ffd81612fc1565b905091905056fea2646970667358221220cb5c8fa3a3c3127a4858b536a4eef8c57f48fcb0b6400dd16be63dab4f574d7a64736f6c63430008090033",
  "immutableReferences": {},
  "source": "// SPDX-License-Identifier: MIT\npragma solidity ^0.8.9;\n\ncontract EnergyTrading {\n    struct EnergyListing {\n        address owner;\n        string name; // Company Name\n        uint256 costPerUnit; // Cost per Energy Unit in Wei\n        uint256 energyAmount; // Total Energy Available (kWh)\n        string fuelType; // Type of Fuel\n        string description; // Description of the Energy Offering\n        string image; // URL to Company Logo/Image\n        uint256 amountSold; // Total Energy Sold (kWh)\n        uint256 createdAt; // Timestamp of Listing Creation\n    }\n\n    struct Purchase {\n        address buyer;\n        uint256 amount;\n        uint256 timestamp;\n    }\n\n    // Struct to track purchases by user\n    struct PurchaseDetail {\n        uint256 listingId;\n        uint256 amount;\n        uint256 timestamp;\n    }\n\n    mapping(uint256 => EnergyListing) public energyListings;\n    mapping(uint256 => Purchase[]) public purchaseHistory; // Mapping to store purchase history per listing\n    mapping(address => PurchaseDetail[]) public userPurchases; // Mapping to store purchases by each user\n    uint256 public numberOfListings = 0;\n\n    // Events\n    event EnergyListingCreated(\n        uint256 indexed id,\n        address indexed owner,\n        string name,\n        uint256 costPerUnit,\n        uint256 energyAmount,\n        string fuelType,\n        string description,\n        string image,\n        uint256 createdAt\n    );\n\n    event EnergyPurchased(\n        uint256 indexed id,\n        address indexed buyer,\n        uint256 amount,\n        uint256 totalCost,\n        uint256 timestamp\n    );\n\n    /**\n     * @dev Creates a new energy listing.\n     */\n    function createEnergyListing(\n        address _owner,\n        string memory _name,\n        uint256 _costPerUnit,\n        uint256 _energyAmount,\n        string memory _fuelType,\n        string memory _description,\n        string memory _image\n    ) public returns (uint256) {\n        require(_costPerUnit > 0, \"Cost per unit must be greater than zero.\");\n        require(_energyAmount > 0, \"Energy amount must be greater than zero.\");\n        require(bytes(_name).length > 0, \"Company name is required.\");\n        require(bytes(_fuelType).length > 0, \"Fuel type is required.\");\n        require(bytes(_image).length > 0, \"Image URL is required.\");\n\n        EnergyListing storage listing = energyListings[numberOfListings];\n        listing.owner = _owner;\n        listing.name = _name;\n        listing.costPerUnit = _costPerUnit;\n        listing.energyAmount = _energyAmount;\n        listing.fuelType = _fuelType;\n        listing.description = _description;\n        listing.image = _image;\n        listing.amountSold = 0;\n        listing.createdAt = block.timestamp;\n\n        emit EnergyListingCreated(\n            numberOfListings,\n            _owner,\n            _name,\n            _costPerUnit,\n            _energyAmount,\n            _fuelType,\n            _description,\n            _image,\n            block.timestamp\n        );\n\n        numberOfListings++;\n        return numberOfListings - 1;\n    }\n\n    /**\n     * @dev Allows users to purchase energy units from a listing.\n     */\n    function buyEnergy(uint256 _id, uint256 _amount) public payable {\n        EnergyListing storage listing = energyListings[_id];\n\n        // Check if the listing exists\n        require(listing.energyAmount > 0, \"Energy listing does not exist.\");\n\n        // Check if the purchase amount is valid\n        require(_amount > 0, \"Purchase amount must be greater than zero.\");\n\n        // Ensure there is enough energy available in the listing\n        require(\n            listing.energyAmount - listing.amountSold >= _amount,\n            \"Not enough energy available.\"\n        );\n\n        uint256 totalCost = listing.costPerUnit * _amount /10**18; // Total cost in Wei\n\n\n        // Ensure the buyer has sent the exact Ether required\n        require(msg.value == totalCost, \"Incorrect Ether value sent.\");\n\n        //above message but returns with the msg.value and totalCost)\n        require(msg.value == totalCost, string(abi.encodePacked(\"Incorrect Ether value sent. You sent: \", msg.value, \" Expected: \", totalCost)));\n\n        // Update the listing to reflect the sold amount\n        listing.amountSold += _amount;\n\n        // Record the purchase with timestamp\n        Purchase memory newPurchase = Purchase({\n            buyer: msg.sender,\n            amount: _amount,\n            timestamp: block.timestamp\n        });\n        purchaseHistory[_id].push(newPurchase);\n\n        // Track the user's purchase\n        userPurchases[msg.sender].push(\n            PurchaseDetail({\n                listingId: _id,\n                amount: _amount,\n                timestamp: block.timestamp\n            })\n        );\n\n        // Interactions: Transfer Ether to the listing owner\n        (bool sent, ) = payable(listing.owner).call{value: totalCost}(\"\");\n        require(sent, \"Failed to send Ether to the owner.\");\n\n        // Emit the event for the purchase\n        emit EnergyPurchased(\n            _id,\n            msg.sender,\n            _amount,\n            totalCost,\n            block.timestamp\n        );\n    }\n\n    /**\n     * @dev Retrieves all energy listings.\n     */\n    function getEnergyListings() public view returns (EnergyListing[] memory) {\n        EnergyListing[] memory allListings = new EnergyListing[](\n            numberOfListings\n        );\n\n        for (uint256 i = 0; i < numberOfListings; i++) {\n            EnergyListing storage item = energyListings[i];\n            allListings[i] = item;\n        }\n\n        return allListings;\n    }\n\n    /**\n     * @dev Retrieves a specific energy listing by ID.\n     */\n    function getEnergyListing(\n        uint256 _id\n    ) public view returns (EnergyListing memory) {\n        require(_id < numberOfListings, \"Energy listing does not exist.\");\n        return energyListings[_id];\n    }\n\n    /**\n     * @dev Retrieves all energy listings created by a specific owner.\n     */\n    function getEnergyListingsByOwner(\n        address _owner\n    ) public view returns (EnergyListing[] memory) {\n        uint256 count = 0;\n\n        for (uint256 i = 0; i < numberOfListings; i++) {\n            if (energyListings[i].owner == _owner) {\n                count++;\n            }\n        }\n\n        EnergyListing[] memory ownerListings = new EnergyListing[](count);\n        uint256 index = 0;\n\n        for (uint256 i = 0; i < numberOfListings; i++) {\n            if (energyListings[i].owner == _owner) {\n                ownerListings[index] = energyListings[i];\n                index++;\n            }\n        }\n\n        return ownerListings;\n    }\n\n    /**\n     * @dev Retrieves the purchase history for a specific energy listing.\n     */\n    function getPurchaseHistory(\n        uint256 _id\n    ) public view returns (Purchase[] memory) {\n        require(_id < numberOfListings, \"Energy listing does not exist.\");\n        return purchaseHistory[_id];\n    }\n\n    /**\n     * @dev Retrieves all purchases made by a specific user across listings.\n     * @param _user Address of the user.\n     * @return An array of PurchaseDetail structs representing the user's purchases.\n     */\n    function getUserPurchases(\n        address _user\n    ) public view returns (PurchaseDetail[] memory) {\n        return userPurchases[_user];\n    }\n}\n",
  "sourcePath": "C:\\Users\\Admin\\cf2\\EnergyTrading\\TruffleWeb3\\contracts\\EnergyTrading.sol",
  "compiler": {
    "name": "solc",
    "version": "0.8.9+commit.e5eed63a.Emscripten.clang"
  },
  "schemaVersion": "3.4.16",
  "updatedAt": "2024-11-19T07:58:54.975Z",
  "networkType": "ethereum",
  "devdoc": {
    "kind": "dev",
    "methods": {
      "buyEnergy(uint256,uint256)": {
        "details": "Allows users to purchase energy units from a listing."
      },
      "createEnergyListing(address,string,uint256,uint256,string,string,string)": {
        "details": "Creates a new energy listing."
      },
      "getEnergyListing(uint256)": {
        "details": "Retrieves a specific energy listing by ID."
      },
      "getEnergyListings()": {
        "details": "Retrieves all energy listings."
      },
      "getEnergyListingsByOwner(address)": {
        "details": "Retrieves all energy listings created by a specific owner."
      },
      "getPurchaseHistory(uint256)": {
        "details": "Retrieves the purchase history for a specific energy listing."
      },
      "getUserPurchases(address)": {
        "details": "Retrieves all purchases made by a specific user across listings.",
        "params": {
          "_user": "Address of the user."
        },
        "returns": {
          "_0": "An array of PurchaseDetail structs representing the user's purchases."
        }
      }
    },
    "version": 1
  },
  "userdoc": {
    "kind": "user",
    "methods": {},
    "version": 1
  }
}